{
    "contractName": "StudentDemo",
    "abi": [
        {
            "inputs": [],
            "name": "getName",
            "outputs": [
                {
                    "internalType": "string",
                    "name": "",
                    "type": "string"
                }
            ],
            "stateMutability": "view",
            "type": "function"
        },
        {
            "inputs": [],
            "name": "init",
            "outputs": [],
            "stateMutability": "nonpayable",
            "type": "function"
        },
        {
            "inputs": [],
            "name": "student",
            "outputs": [
                {
                    "internalType": "string",
                    "name": "name",
                    "type": "string"
                },
                {
                    "internalType": "uint256",
                    "name": "age",
                    "type": "uint256"
                }
            ],
            "stateMutability": "view",
            "type": "function"
        }
    ],
    "bytecode": "608080604052346015576102ad908161001a8239f35b5f80fdfe60806040526004361015610011575f80fd5b5f3560e01c806317d7de7c14610117578063699450e8146100db5763e1c7392a1461003a575f80fd5b346100d7575f3660031901126100d7576100545f5461016e565b601f8111610075575b6010673d3430b733b9b0b760c11b015f556012600155005b601f0160051c7f290decd9548b62a8d60345a988386fc84ba6bc95484008f6362f93160ef3e563017f290decd9548b62a8d60345a988386fc84ba6bc95484008f6362f93160ef3e5635b8181106100cc575061005d565b5f81556001016100bf565b5f80fd5b346100d7575f3660031901126100d75761010d6100f66101a6565b60015460405192839260408452604084019061014a565b9060208301520390f35b346100d7575f3660031901126100d7576101466101326101a6565b60405191829160208352602083019061014a565b0390f35b805180835260209291819084018484015e5f828201840152601f01601f1916010190565b90600182811c9216801561019c575b602083101461018857565b634e487b7160e01b5f52602260045260245ffd5b91607f169161017d565b604051905f5f546101b68161016e565b808552906001811690811561025b5750600114610207575b50829003601f01601f1916820167ffffffffffffffff8111838210176101f357604052565b634e487b7160e01b5f52604160045260245ffd5b5f8080529091507f290decd9548b62a8d60345a988386fc84ba6bc95484008f6362f93160ef3e5635b8282106102455750602091508301015f6101ce565b6001816020925483858901015201910190610230565b90506020925060ff191682850152151560051b8301015f6101ce56fea26469706673582212208cb943003198ba4a1d896c87968ab9a71998f48960145855c62f0136d123b9ea64736f6c634300081d0033",
    "sourcePath": "/Users/weiwei/Desktop/开发/开发项目/solidity-project/contracts/student.sol",
    "compiler": {
        "name": "solc",
        "version": "0.8.29+commit.ab55807c"
    },
    "functionHashes": {
        "getName()": "17d7de7c",
        "init()": "e1c7392a",
        "student()": "699450e8"
    },
    "gasEstimates": {
        "creation": {
            "codeDepositCost": "137000",
            "executionCost": "190",
            "totalCost": "137190"
        },
        "external": {
            "getName()": "infinite",
            "init()": "infinite",
            "student()": "infinite"
        }
    }
}