{
  "contractName": "Hello",
  "abi": [
    {
      "inputs": [
        {
          "internalType": "string",
          "name": "_message",
          "type": "string"
        }
      ],
      "stateMutability": "nonpayable",
      "type": "constructor"
    },
    {
      "inputs": [],
      "name": "message",
      "outputs": [
        {
          "internalType": "string",
          "name": "",
          "type": "string"
        }
      ],
      "stateMutability": "view",
      "type": "function",
      "constant": true
    },
    {
      "inputs": [
        {
          "internalType": "string",
          "name": "_message",
          "type": "string"
        }
      ],
      "name": "update",
      "outputs": [],
      "stateMutability": "nonpayable",
      "type": "function"
    }
  ],
  "bytecode": "0x608060405234801561001057600080fd5b50604051610ba9380380610ba9833981810160405281019061003291906101bd565b8060009081610041919061042d565b50506104ff565b6000604051905090565b600080fd5b600080fd5b600080fd5b600080fd5b6000601f19601f8301169050919050565b7f4e487b7100000000000000000000000000000000000000000000000000000000600052604160045260246000fd5b6100af82610066565b810181811067ffffffffffffffff821117156100ce576100cd610077565b5b80604052505050565b60006100e1610048565b90506100ed82826100a6565b919050565b600067ffffffffffffffff82111561010d5761010c610077565b5b61011682610066565b9050602081019050919050565b60005b83811015610141578082015181840152602081019050610126565b60008484015250505050565b600061016061015b846100f2565b6100d7565b90508281526020810184848401111561017c5761017b610061565b5b610187848285610123565b509392505050565b600082601f8301126101a4576101a361005c565b5b81516101b484826020860161014d565b91505092915050565b6000602082840312156101d3576101d2610052565b5b600082015167ffffffffffffffff8111156101f1576101f0610057565b5b6101fd8482850161018f565b91505092915050565b600081519050919050565b7f4e487b7100000000000000000000000000000000000000000000000000000000600052602260045260246000fd5b6000600282049050600182168061025857607f821691505b60208210810361026b5761026a610211565b5b50919050565b60008190508160005260206000209050919050565b60006020601f8301049050919050565b60008160020a8302905092915050565b6000600883026102d67fffffffffffffffffffffffffffffffffffffffffffffffffffffffffffffffff82610296565b6102e08683610296565b95508019841693508086168417925050509392505050565b6000819050919050565b6000819050919050565b600061032761032261031d846102f8565b610302565b6102f8565b9050919050565b6000819050919050565b6103418361030c565b61035561034d8261032e565b8484546102a6565b825550505050565b600090565b61036a61035d565b610375818484610338565b505050565b5b818110156103995761038e600082610362565b60018101905061037b565b5050565b601f8211156103de576103af81610271565b6103b884610286565b810160208510156103c7578190505b6103db6103d385610286565b83018261037a565b50505b505050565b60008160020a8304905092915050565b6000610404600019846008026103e3565b1980831691505092915050565b600061041d83836103f3565b9150826002028217905092915050565b61043682610206565b67ffffffffffffffff81111561044f5761044e610077565b5b6104598254610240565b61046482828561039d565b600060209050601f8311600181146104975760008415610485578287015190505b61048f8582610411565b8655506104f7565b601f1984166104a586610271565b60005b828110156104cd578489015182556001820191506020850194506020810190506104a8565b868310156104ea57848901516104e6601f8916826103f3565b8355505b6001600288020188555050505b505050505050565b61069b8061050e6000396000f3fe608060405234801561001057600080fd5b5060043610610053576000357c0100000000000000000000000000000000000000000000000000000000900480633d7403a314610058578063e21f37ce14610074575b600080fd5b610072600480360381019061006d919061028d565b610092565b005b61007c6100a5565b6040516100899190610355565b60405180910390f35b80600090816100a19190610593565b5050565b600080546100b2906103a6565b80601f01602080910402602001604051908101604052809291908181526020018280546100de906103a6565b801561012b5780601f106101005761010080835404028352916020019161012b565b820191906000526020600020905b81548152906001019060200180831161010e57829003601f168201915b505050505081565b6000604051905090565b600080fd5b600080fd5b600080fd5b600080fd5b6000601f19601f8301169050919050565b7f4e487b7100000000000000000000000000000000000000000000000000000000600052604160045260246000fd5b61019a82610151565b810181811067ffffffffffffffff821117156101b9576101b8610162565b5b80604052505050565b60006101cc610133565b90506101d88282610191565b919050565b600067ffffffffffffffff8211156101f8576101f7610162565b5b61020182610151565b9050602081019050919050565b82818337600083830152505050565b600061023061022b846101dd565b6101c2565b90508281526020810184848401111561024c5761024b61014c565b5b61025784828561020e565b509392505050565b600082601f83011261027457610273610147565b5b813561028484826020860161021d565b91505092915050565b6000602082840312156102a3576102a261013d565b5b600082013567ffffffffffffffff8111156102c1576102c0610142565b5b6102cd8482850161025f565b91505092915050565b600081519050919050565b600082825260208201905092915050565b60005b838110156103105780820151818401526020810190506102f5565b60008484015250505050565b6000610327826102d6565b61033181856102e1565b93506103418185602086016102f2565b61034a81610151565b840191505092915050565b6000602082019050818103600083015261036f818461031c565b905092915050565b7f4e487b7100000000000000000000000000000000000000000000000000000000600052602260045260246000fd5b600060028204905060018216806103be57607f821691505b6020821081036103d1576103d0610377565b5b50919050565b60008190508160005260206000209050919050565b60006020601f8301049050919050565b60008160020a8302905092915050565b60006008830261043c7fffffffffffffffffffffffffffffffffffffffffffffffffffffffffffffffff826103fc565b61044686836103fc565b95508019841693508086168417925050509392505050565b6000819050919050565b6000819050919050565b600061048d6104886104838461045e565b610468565b61045e565b9050919050565b6000819050919050565b6104a783610472565b6104bb6104b382610494565b84845461040c565b825550505050565b600090565b6104d06104c3565b6104db81848461049e565b505050565b5b818110156104ff576104f46000826104c8565b6001810190506104e1565b5050565b601f82111561054457610515816103d7565b61051e846103ec565b8101602085101561052d578190505b610541610539856103ec565b8301826104e0565b50505b505050565b60008160020a8304905092915050565b600061056a60001984600802610549565b1980831691505092915050565b60006105838383610559565b9150826002028217905092915050565b61059c826102d6565b67ffffffffffffffff8111156105b5576105b4610162565b5b6105bf82546103a6565b6105ca828285610503565b600060209050601f8311600181146105fd57600084156105eb578287015190505b6105f58582610577565b86555061065d565b601f19841661060b866103d7565b60005b828110156106335784890151825560018201915060208501945060208101905061060e565b86831015610650578489015161064c601f891682610559565b8355505b6001600288020188555050505b50505050505056fea2646970667358221220ea0935338a73384264f252e70469259c56ef34c20b410734515368db97ac456664736f6c634300081d0033",
  "immutableReferences": {},
  "source": "// SPDX-License-Identifier: MIT\npragma solidity ^0.8.29;\n\ncontract Hello {\n    string public message;\n\n    constructor(string memory _message) {\n        message = _message;\n    }\n\n    function update(string memory _message) public {\n        message = _message;\n    }\n}",
  "sourcePath": "/Users/weiwei/Desktop///solidity-project/contracts/hello.sol",
  "compiler": {
    "name": "solc",
    "version": "0.8.29+commit.ab55807c.Emscripten.clang"
  },
  "schemaVersion": "3.4.16",
  "updatedAt": "2025-03-15T11:27:10.392Z",
  "networkType": "ethereum",
  "devdoc": {
    "kind": "dev",
    "methods": {},
    "version": 1
  },
  "userdoc": {
    "kind": "user",
    "methods": {},
    "version": 1
  }
}