{
  "contractName": "InsertionSort",
  "abi": [
    {
      "inputs": [
        {
          "internalType": "uint256[]",
          "name": "data",
          "type": "uint256[]"
        }
      ],
      "name": "sort",
      "outputs": [
        {
          "internalType": "uint256[]",
          "name": "",
          "type": "uint256[]"
        }
      ],
      "stateMutability": "pure",
      "type": "function",
      "constant": true
    },
    {
      "inputs": [],
      "name": "test",
      "outputs": [
        {
          "internalType": "uint256[]",
          "name": "",
          "type": "uint256[]"
        }
      ],
      "stateMutability": "pure",
      "type": "function",
      "constant": true
    }
  ],
  "bytecode": "0x6080604052348015600f57600080fd5b506106ed8061001f6000396000f3fe608060405234801561001057600080fd5b5060043610610053576000357c0100000000000000000000000000000000000000000000000000000000900480639ec8b02614610058578063f8a8fd6d14610088575b600080fd5b610072600480360381019061006d9190610457565b6100a6565b60405161007f919061055e565b60405180910390f35b6100906101cd565b60405161009d919061055e565b60405180910390f35b6060600082519050600081036100bf57829150506101c8565b6000600190505b818110156101c25760008482815181106100e3576100e2610580565b5b6020026020010151905060006001836100fc91906105e8565b90505b6000811215801561012957508186828151811061011f5761011e610580565b5b6020026020010151115b156101875785818151811061014157610140610580565b5b602002602001015186600183610157919061062b565b8151811061016857610167610580565b5b602002602001018181525050808061017f9061066f565b9150506100ff565b8186600183610196919061062b565b815181106101a7576101a6610580565b5b602002602001018181525050505080806001019150506100c6565b50829150505b919050565b60606000600467ffffffffffffffff8111156101ec576101eb6102de565b5b60405190808252806020026020018201604052801561021a5781602001602082028036833780820191505090505b50905060028160008151811061023357610232610580565b5b60200260200101818152505060058160018151811061025557610254610580565b5b60200260200101818152505060038160028151811061027757610276610580565b5b60200260200101818152505060018160038151811061029957610298610580565b5b6020026020010181815250506102ae816100a6565b91505090565b6000604051905090565b600080fd5b600080fd5b600080fd5b6000601f19601f8301169050919050565b7f4e487b7100000000000000000000000000000000000000000000000000000000600052604160045260246000fd5b610316826102cd565b810181811067ffffffffffffffff82111715610335576103346102de565b5b80604052505050565b60006103486102b4565b9050610354828261030d565b919050565b600067ffffffffffffffff821115610374576103736102de565b5b602082029050602081019050919050565b600080fd5b6000819050919050565b61039d8161038a565b81146103a857600080fd5b50565b6000813590506103ba81610394565b92915050565b60006103d36103ce84610359565b61033e565b905080838252602082019050602084028301858111156103f6576103f5610385565b5b835b8181101561041f578061040b88826103ab565b8452602084019350506020810190506103f8565b5050509392505050565b600082601f83011261043e5761043d6102c8565b5b813561044e8482602086016103c0565b91505092915050565b60006020828403121561046d5761046c6102be565b5b600082013567ffffffffffffffff81111561048b5761048a6102c3565b5b61049784828501610429565b91505092915050565b600081519050919050565b600082825260208201905092915050565b6000819050602082019050919050565b6104d58161038a565b82525050565b60006104e783836104cc565b60208301905092915050565b6000602082019050919050565b600061050b826104a0565b61051581856104ab565b9350610520836104bc565b8060005b8381101561055157815161053888826104db565b9750610543836104f3565b925050600181019050610524565b5085935050505092915050565b600060208201905081810360008301526105788184610500565b905092915050565b7f4e487b7100000000000000000000000000000000000000000000000000000000600052603260045260246000fd5b6000819050919050565b7f4e487b7100000000000000000000000000000000000000000000000000000000600052601160045260246000fd5b60006105f3826105af565b91506105fe836105af565b9250828203905081811260008412168282136000851215161715610625576106246105b9565b5b92915050565b6000610636826105af565b9150610641836105af565b925082820190508281121560008312168382126000841215161715610669576106686105b9565b5b92915050565b600061067a826105af565b91507f800000000000000000000000000000000000000000000000000000000000000082036106ac576106ab6105b9565b5b60018203905091905056fea2646970667358221220c0cc23b276ba16c975471502de30cf2e383b0a3adea99a181515b81be4c7b02d64736f6c634300081d0033",
  "immutableReferences": {},
  "source": "// SPDX-License-Identifier: MIT\npragma solidity ^0.8.29;\n\n// InsertionSort contract\n// \n// \n// O(n^2)\n// O(1)\n// \n// \ncontract InsertionSort {\n\n    function sort(uint[] memory data) public pure returns (uint[] memory) {\n        uint len = data.length;\n        if (len == 0) {\n            return data;\n        }\n\n        for (uint i = 1; i < len; i++) {\n            uint key = data[i];\n            int256 j = int256(i) - 1; // \n            // data[i]\n            while(j >= 0 && data[uint(j)] > key) {\n                data[uint(j+1)] = data[uint(j)];\n                j--;\n            }\n            data[uint(j+1)] = key;\n        }\n        return data;\n    }\n\n    function test() public pure returns (uint[] memory) {\n        uint[] memory data = new uint[](4);\n        data[0] = 2;\n        data[1] = 5;\n        data[2] = 3;\n        data[3] = 1;\n        return sort(data);\n    }\n}",
  "sourcePath": "/Users/weiwei/Desktop///solidity-project/contracts/InsertionSort.sol",
  "compiler": {
    "name": "solc",
    "version": "0.8.29+commit.ab55807c.Emscripten.clang"
  },
  "schemaVersion": "3.4.16",
  "updatedAt": "2025-03-15T11:27:10.406Z",
  "networkType": "ethereum",
  "devdoc": {
    "kind": "dev",
    "methods": {},
    "version": 1
  },
  "userdoc": {
    "kind": "user",
    "methods": {},
    "version": 1
  }
}