{
  "contractName": "StudentDemo",
  "abi": [
    {
      "inputs": [],
      "name": "student",
      "outputs": [
        {
          "internalType": "string",
          "name": "name",
          "type": "string"
        },
        {
          "internalType": "uint256",
          "name": "age",
          "type": "uint256"
        }
      ],
      "stateMutability": "view",
      "type": "function",
      "constant": true
    },
    {
      "inputs": [],
      "name": "init",
      "outputs": [],
      "stateMutability": "nonpayable",
      "type": "function"
    },
    {
      "inputs": [],
      "name": "getName",
      "outputs": [
        {
          "internalType": "string",
          "name": "",
          "type": "string"
        }
      ],
      "stateMutability": "view",
      "type": "function",
      "constant": true
    }
  ],
  "bytecode": "0x6080604052348015600f57600080fd5b506106708061001f6000396000f3fe608060405234801561001057600080fd5b506004361061005e576000357c01000000000000000000000000000000000000000000000000000000009004806317d7de7c14610063578063699450e814610081578063e1c7392a146100a0575b600080fd5b61006b6100aa565b60405161007891906102bc565b60405180910390f35b61008961013e565b6040516100979291906102f7565b60405180910390f35b6100a86101d8565b005b60606000800180546100bb90610356565b80601f01602080910402602001604051908101604052809291908181526020018280546100e790610356565b80156101345780601f1061010957610100808354040283529160200191610134565b820191906000526020600020905b81548152906001019060200180831161011757829003601f168201915b5050505050905090565b600080600001805461014f90610356565b80601f016020809104026020016040519081016040528092919081815260200182805461017b90610356565b80156101c85780601f1061019d576101008083540402835291602001916101c8565b820191906000526020600020905b8154815290600101906020018083116101ab57829003601f168201915b5050505050908060010154905082565b6040518060400160405280600881526020017f7a68616e6773616e00000000000000000000000000000000000000000000000081525060008001908161021e9190610568565b506012600060010181905550565b600081519050919050565b600082825260208201905092915050565b60005b8381101561026657808201518184015260208101905061024b565b60008484015250505050565b6000601f19601f8301169050919050565b600061028e8261022c565b6102988185610237565b93506102a8818560208601610248565b6102b181610272565b840191505092915050565b600060208201905081810360008301526102d68184610283565b905092915050565b6000819050919050565b6102f1816102de565b82525050565b600060408201905081810360008301526103118185610283565b905061032060208301846102e8565b9392505050565b7f4e487b7100000000000000000000000000000000000000000000000000000000600052602260045260246000fd5b6000600282049050600182168061036e57607f821691505b60208210810361038157610380610327565b5b50919050565b7f4e487b7100000000000000000000000000000000000000000000000000000000600052604160045260246000fd5b60008190508160005260206000209050919050565b60006020601f8301049050919050565b60008160020a8302905092915050565b60006008830261041b7fffffffffffffffffffffffffffffffffffffffffffffffffffffffffffffffff826103db565b61042586836103db565b95508019841693508086168417925050509392505050565b6000819050919050565b600061046261045d610458846102de565b61043d565b6102de565b9050919050565b6000819050919050565b61047c83610447565b61049061048882610469565b8484546103eb565b825550505050565b600090565b6104a5610498565b6104b0818484610473565b505050565b5b818110156104d4576104c960008261049d565b6001810190506104b6565b5050565b601f821115610519576104ea816103b6565b6104f3846103cb565b81016020851015610502578190505b61051661050e856103cb565b8301826104b5565b50505b505050565b60008160020a8304905092915050565b600061053f6000198460080261051e565b1980831691505092915050565b6000610558838361052e565b9150826002028217905092915050565b6105718261022c565b67ffffffffffffffff81111561058a57610589610387565b5b6105948254610356565b61059f8282856104d8565b600060209050601f8311600181146105d257600084156105c0578287015190505b6105ca858261054c565b865550610632565b601f1984166105e0866103b6565b60005b82811015610608578489015182556001820191506020850194506020810190506105e3565b868310156106255784890151610621601f89168261052e565b8355505b6001600288020188555050505b50505050505056fea26469706673582212205768e74f51ce31c1cb80365ade132e8b47e82d81a3e213e86afc1eadf9043e5e64736f6c634300081d0033",
  "immutableReferences": {},
  "source": "// SPDX-License-Identifier: MIT\npragma  solidity ^0.8.29;\n\ncontract StudentDemo {\n\n    struct Student {\n        string name;\n        uint  age;\n    }\n    Student public student;\n\n    function init() public {\n        student.name = \"zhangsan\";\n        student.age = 18;\n    }\n    \n    function getName() public view returns(string memory) {\n        return student.name;\n    }\n}",
  "sourcePath": "/Users/weiwei/Desktop///solidity-project/contracts/student.sol",
  "compiler": {
    "name": "solc",
    "version": "0.8.29+commit.ab55807c.Emscripten.clang"
  },
  "schemaVersion": "3.4.16",
  "updatedAt": "2025-03-15T11:27:10.402Z",
  "networkType": "ethereum",
  "devdoc": {
    "kind": "dev",
    "methods": {},
    "version": 1
  },
  "userdoc": {
    "kind": "user",
    "methods": {},
    "version": 1
  }
}